:100000000C9446000C9468000C9468000C946800F2
:100010000C9468000C9468000C9468000C946800C0
:100020000C9468000C9468000C9468000C946800B0
:100030000C9468000C9468000C9468000C946800A0
:100040000C9468000C9468000C9468000C94680090
:100050000C9468000C9468000C9468000C94680080
:100060000C9468000C9468000C9468000C94680070
:100070000C9468000C9468000C9468000C94680060
:100080000C9468000C9468000C94680011241FBE46
:10009000CFEFD0E1DEBFCDBF0E9452000C945000E4
:0400A000F894FFCF02
:1000A400BD9AC59A2FEF81EE94E021508040904094
:1000B400E1F700C00000C5982FEF83ED90E32150D5
:0C00C40080409040E1F700C00000EBCF4E
:0400D0000C9400008C
:00000001FF
